:100000001CC036C035C034C033C032C031C030C06F
:100010002FC0BFC02DC02CC02BC02AC029C028C0F3
:1000200027C026C025C02FC030C031C032C033C069
:1000300034C035C036C037C038C011241FBECFE52C
:10004000D4E0DEBFCDBF10E0A0E6B0E0EAE3F2E02E
:1000500002C005900D92A036B107D9F710E0A0E6D6
:10006000B0E001C01D92A436B107E1F766D0E3C04D
:10007000C7CF8A3000F5E82FF0E0EA30F105B8F498
:10008000ED5EFF4F099483E011C08FE90FC085E258
:100090000DC08DE00BC089E909C089E407C081E487
:1000A00005C08FE103C081E001C089E082BB662307
:1000B00021F0909808958DEF82BB089520E040E0F4
:1000C00050E0CA010197F1F72F5F2A30D1F7089568
:1000D0009C0183E0283E3807F0F440E00FC0E42F95
:1000E000F0E0EF59FF4FC9016AE070E090D08083E3
:1000F0004F5FC9016AE070E08AD09B01211531058C
:1001000071F7842F06C0E82FF0E0EF59FF4F1082FF
:100110008F5F8330C0F3089580E487B987E886B99C
:10012000089597B18770892B87B9369A349BFECF93
:10013000349A24B135B1C9010895CF93DF9383B7C1
:10014000846083BF89B7816089BF12BE87B387602F
:1001500087BB86E088BB8FEF81BB82BB789480E44D
:1001600087B987E886B9C0E0D0E087B187B9369A09
:10017000349BFECF349A84B195B19695879590E0E3
:10018000A7DF20E0CE010197F1F72F5F2A30D1F7EA
:10019000ECCF1F920F920FB60F9211242F933F9323
:1001A0004F935F936F937F938F939F93AF93BF937F
:1001B000EF93FF9380916000823019F410926000F9
:1001C00003C08F5F80936000E0916000F0E081E009
:1001D00090E00E2E02C0880F991F0A94E2F78095D6
:1001E00088BBEF59FF4F60E0808143DFFF91EF91C3
:1001F000BF91AF919F918F917F916F915F914F913F
:100200003F912F910F900FBE0F901F901895AA1B32
:10021000BB1B51E107C0AA1FBB1FA617B70710F0F1
:10022000A61BB70B881F991F5A95A9F78095909523
:0A023000BC01CD010895F894FFCF42
:00000001FF
