:1000000012C02CC02BC02AC029C028C027C026C0BF
:1000100025C024C023C022C021C020C01FC01EC0D4
:100020001DC01CC01BC011241FBECFE5D4E0DEBF25
:10003000CDBF11E0A0E6B0E0EEE5FAE002C0059029
:100040000D92A430B107D9F711E0A4E0B1E001C0EE
:100050001D92AA30B107E1F74AD0FFC4D1CF899AE7
:10006000889810BC87E689B988E18AB986E880BD9E
:1000700086EF90E0909307018093060108951F9307
:10008000182F8A3011F48DE0FADF5D9BFECF1CB98A
:1000900080E090E01F9108955F9BFECF8CB10895A2
:1000A00080E487B987E886B9089597B1982B97B906
:1000B000369A349BFECF349A24B135B1C9010895E4
:1000C00087B38E6087BB82E18EBD82EA8FBD80E2FE
:1000D0009EE497BD86BD89E685BD88E795E099BD1C
:1000E00088BD88B599B59BBD8ABD13BC08952F9274
:1000F0003F924F925F926F927F928F929F92AF92B8
:10010000BF92CF92DF92EF92FF920F931F93CF9304
:10011000DF9381B3806F81BB899A889810BC87E692
:1001200089B988E18AB986E880BD86EF90E090932E
:1001300007018093060187B38E6087BB82E18EBD85
:1001400082EA8FBD80E29EE497BD86BD89E685BDCB
:1001500088E795E099BD88BD88B599B59BBD8ABDF6
:1001600013BC80E487B987E886B928EEC22E23E065
:10017000D22E04E694E6E92E90E0F92EAA24BB24C0
:1001800080ED282E87E0382E18E7612E10E0712EC2
:10019000B2E74B2EB0E05B2EADE68A2EA0E09A2EA1
:1001A0005F9BFECF8CB18332D9F75F9BFECF1CB132
:1001B000133561F01F3451F0143541F0123431F031
:1001C000103521F0133611F01F3351F700D000D055
:1001D000EDB7FEB7319620E630E0ADB7BEB7129668
:1001E0003C932E9311971283138245D10F900F9059
:1001F0000F900F90133511F01234F1F55F9BFECF85
:100200008CB15F9BFECF7CB15F9BFECF6CB15F9BDF
:10021000FECF4CB190E0C0978C9D90018D9D300D2C
:100220009C9D300D112450E0405D5441709FC001F1
:100230001124480F591F7AE0679FC0011124480F0D
:10024000591F420F531F133519F45BBD4ABD03C03C
:10025000123409F443BD00D000D0ADB7BEB712963A
:10026000FC92EE92119714965C934E93139703D1E0
:100270000F900F900F900F901F3409F053C05F9BA9
:10028000FECF8CB15F9BFECF3CB15F9BFECF6CB1CC
:100290005F9BFECF2CB190E0C097F4E0880F991FD0
:1002A000FA95E1F7432F50E040535040E5E0440F0A
:1002B000551FEA95E1F7480F591F862F90E0C09728
:1002C00076E0880F991F7A95E1F7480F591F30E0C3
:1002D000205330403695322F222737952795420FED
:1002E000531F413F5105D0F482B38F7082BB82B35C
:1002F000840F82BB82B300D000D0EDB7FEB7319639
:10030000ADB7BEB71296FC92EE921197828313821C
:10031000B2D00F900F900F900F9094C088E690E0AD
:10032000C2D090C0143509F053C087B187B9369A4E
:10033000349BFECF349AC4B1D5B1B3E0C83EDB07DD
:1003400068F000D000D0EDB7FEB7F282E182D4832E
:10035000C38391D00F900F900F900F90CE018456D1
:1003600090408358934088F400D000D0ADB7BEB71A
:1003700012969C928E9211971496DC93CE931397BB
:100380007AD00F900F900F900F90CE010A97893579
:10039000910568F400D000D0EDB7FEB752824182DB
:1003A000D483C38368D00F900F900F900F90C93003
:1003B000D10508F0F5CE00D000D0ADB7BEB712968B
:1003C0007C926E9211971496DC93CE93139734C05F
:1003D0001035E1F4DBBCCABC80E090E0F501319758
:1003E000F1F7019682339105C9F73BBC2ABC80E046
:1003F00090E0F5013197F1F7019682339105C9F745
:10040000DBBCCABC8AE090E048D0CACE1336D1F437
:1004100087B187B9369A349BFECF349A84B195B1AF
:1004200000D000D02FE730E0EDB7FEB73283218354
:1004300096958795948383831ED00F900F900F908D
:100440000F90AECE1F3309F0ABCE8CE990E02BD0ED
:1004500086EA90E028D080EB90E025D088EB90E011
:1004600022D088EC90E01FD082ED90E01CD08BED84
:1004700090E019D095CEA0E0B0E0E0E4F2E0C6C292
:10048000FE0135966191719180910601909107016D
:10049000AF013ED02096E2E0D5C260910601709196
:1004A00007011AD208950F931F93CF93DF938C0106
:1004B000E0910601F0910701838181FF21C0C0E036
:1004C000D0E00DC0E0910601F09107012085318553
:1004D000BF01F9010995892B11F0CFEFDFEFF8018A
:1004E00081918F01882371F7E0910601F091070156
:1004F000208531858AE0BF01F9010995892B11F02A
:10050000CFEFDFEFCE01DF91CF911F910F910895D3
:10051000ABE0B0E0EDE8F2E069C23C012B015A012A
:10052000FC0117821682838181FD03C06FEF7FEF8C
:10053000B9C19AE0892E1E010894211C311CF301D7
:100540002381F20123FD859123FF81912F018823CF
:1005500009F4A5C1853239F423FD859123FF8191EA
:100560002F01853221F490E0B301B6D1E8CF982F66
:10057000FF24EE249924FFE1FF15D0F09B3269F0AF
:100580009C3228F4903259F0933291F40EC09D328F
:1005900049F0903369F441E024C052E0F52A84E048
:1005A000F82A28C098E0F92A25C0E0E1FE2A22C0F6
:1005B000F7FC29C0892F80538A3070F4F6FE05C0FD
:1005C000989C902C1124980E15C0E89CE02C1124C6
:1005D000E80EF0E2FF2A0EC09E3229F4F6FC5FC15D
:1005E00040E4F42A07C09C3619F450E8F52A02C00A
:1005F000983649F4F20123FD959123FF91912F0143
:10060000992309F0B8CF892F8554833018F0805290
:10061000833038F444E050E0A40EB51E5FE3598304
:100620000FC0933631F0933779F0933509F052C00B
:100630001FC0F5018081898342E050E0A40EB51E01
:10064000610101E010E011C0F501C080D180F6FC2D
:1006500003C06FEF7FEF02C0692D70E042E050E011
:10066000A40EB51EC6012DD18C015FE7F52213C083
:10067000F501C080D180F6FC03C06FEF7FEF02C0B0
:10068000692D70E042E050E0A40EB51EC6010ED107
:100690008C0150E8F52AF3FE06C018C080E290E015
:1006A000B3011AD1EA948E2D90E008171907B0F320
:1006B0000DC0F601F7FC8591F7FE81916F0190E086
:1006C000B3010AD1E110EA9401501040011511055F
:1006D00081F7E2C0943611F0993661F5F7FE08C053
:1006E000F501208131814281538184E090E00AC08C
:1006F000F501808191819C01442737FD4095542F5D
:1007000082E090E0A80EB91E9FE6F92257FF09C0CB
:1007100050954095309521953F4F4F4F5F4FE0E802
:10072000FE2ACA01B901A1012AE030E001D1D82E88
:10073000D2183FC0953729F41F2D1F7E2AE030E0E4
:100740001DC01F2D197F9F3661F0903720F498351A
:1007500009F0A5C00FC0903739F0983709F09FC055
:1007600004C028E030E00AC0106114FD146020E1EC
:1007700030E004C014FD166020E132E017FF08C02D
:10078000F501608171818281938144E050E008C06D
:10079000F50180819181BC0180E090E042E050E071
:1007A000A40EB51EA101C4D0D82ED2188FE7F82E02
:1007B000F122F6FE0BC05EEFF522D91438F4F4FEF8
:1007C00007C0F2FC05C08FEEF82202C01D2D01C04B
:1007D000192DF4FE0DC0FE01ED0DF11D8081803359
:1007E00019F499EEF92208C01F5FF2FE05C003C09C
:1007F0008F2D867809F01F5F0F2DF3FC13C0F0FEDC
:100800000EC01E1510F09D2C0AC09D2C9E0C911A36
:100810001E2D05C080E290E0B3015ED01F5F1E1563
:10082000C8F304C01E1510F4E11A01C0EE2404FF41
:100830000EC080E390E0B3014FD002FF1BC001FD6A
:1008400003C088E790E00EC088E590E00BC0802FE1
:10085000867881F001FF02C08BE201C080E2F7FCE4
:100860008DE290E0B30138D005C080E390E0B301A1
:1008700033D09A94D914C8F3DA94F101ED0DF11D37
:10088000808190E0B30128D0DD20B1F705C080E27F
:1008900090E0B30121D0EA94EE20C9F750CEF301E5
:1008A00066817781CB012B96E2E1BCC0FC0105900B
:1008B000615070400110D8F7809590958E0F9F1F62
:1008C0000895FC016150704001900110D8F78095A7
:1008D00090958E0F9F1F08950F931F93CF93DF93D3
:1008E0008C01EB018B8181FF1BC082FF0DC02E812B
:1008F0003F818C819D812817390764F4E881F98153
:100900000193F983E88306C0E885F985802F09956E
:10091000892B31F48E819F8101969F838E8302C043
:100920000FEF1FEFC801DF91CF911F910F91089535
:10093000FA01AA27283051F1203181F1E8946F9310
:100940006E7F6E5F7F4F8F4F9F4FAF4FB1E03ED0B6
:10095000B4E03CD0670F781F891F9A1FA11D680F54
:10096000791F8A1F911DA11D6A0F711D811D911D87
:10097000A11D20D009F468943F912AE0269F1124FC
:100980003019305D3193DEF6CF010895462F477060
:10099000405D4193B3E00FD0C9F7F6CF462F4F70BB
:1009A000405D4A3318F0495D31FD4052419302D019
:1009B000A9F7EACFB4E0A6959795879577956795BF
:1009C000BA95C9F700976105710508959B01AC01BF
:1009D0000A2E06945795479537952795BA95C9F7E6
:1009E000620F731F841F951FA01D08952F923F92C1
:1009F0004F925F926F927F928F929F92AF92BF922F
:100A0000CF92DF92EF92FF920F931F93CF93DF93DA
:100A1000CDB7DEB7CA1BDB0B0FB6F894DEBF0FBE37
:100A2000CDBF09942A88398848885F846E847D8484
:100A30008C849B84AA84B984C884DF80EE80FD8086
:100A40000C811B81AA81B981CE0FD11D0FB6F894FC
:0E0A5000DEBF0FBECDBFED010895F894FFCFBD
:100A5E002325630025640A004552524F0030256459
:100A6E000A00303025640A0030303025640A002038
:100A7E002D20526F6F6D2074656D70657261747587
:100A8E00726520697320256420430A000A3F203DC9
:100A9E002068656C700053203D20736572766F0080
:100AAE004F203D206F75740054203D2074656D708D
:100ABE00657261747572650042203D20626C696ECC
:100ACE006B0050203D206F70656E0063203D2074DA
:100ADE00656D706572617475726520696E206365EF
:100AEE006C636975730000000002000000003F0097
:040AFE0000000000F4
:00000001FF
