:1000000012C02CC02BC02AC029C028C027C026C0BF
:1000100025C024C023C022C021C020C01FC01EC0D4
:100020001DC01CC01BC011241FBECFE5D4E0DEBF25
:10003000CDBF10E0A0E6B0E0E6EEF6E002C005902D
:100040000D92A437B107D9F710E0A4E7B0E001C0E2
:100050001D92AA37B107E1F731D043C3D1CF899AB6
:10006000889810BC87E689B988E18AB986E880BD9E
:1000700085E690E0909377008093760008951F9333
:10008000182F8A3011F48DE0FADF5D9BFECF1CB98A
:1000900080E090E01F9108955F9BFECF8CB10895A2
:1000A00087B3866087BB19BC18BC88B599B59BBD62
:1000B0008ABD89E08EBD81EA8FBD0895EF92FF92DF
:1000C0000F931F93CF93DF93899A889810BC87E68C
:1000D00089B988E18AB986E880BD85E690E0909389
:1000E00077008093760087B3866087BB19BC18BC05
:1000F00088B599B59BBD8ABD89E08EBD81EA8FBD6B
:100100008FEF90E09BBD8ABD80E090E00197F1F712
:1001100019BC18BC88B599B59BBD8ABD94E6E92E7B
:100120008AE0F82EC0E6D0E05F9BFECF8CB1833230
:10013000D9F75F9BFECF8CB15F9BFECF2CB15F9B4D
:10014000FECF0CB1005D8E9DC0011124080F2F9DC4
:10015000C0011124080F10E01F930F93DF93CF937A
:1001600007D01BBD0ABD0F900F900F900F90DCCFF2
:10017000A0E0B0E0EDEBF0E08DC2FE0135966191BC
:100180007191AF01809176009091770003D0209615
:10019000E2E09CC2ABE0B0E0EFECF0E06BC23C010F
:1001A0002B015A01FC0117821682838181FD03C055
:1001B0006FEF7FEFBBC19AE0892E1E010894211CCE
:1001C000311CF3012381F20123FD859123FF8191ED
:1001D0002F01882309F4A7C1853239F423FD8591C5
:1001E00023FF81912F01853221F4B30190E0B8D132
:1001F000E8CF982FDD24CC249924FFE1FD15D0F021
:100200009B3269F09C3228F4903259F0933291F489
:100210000EC09D3249F0903369F441E024C052E0B1
:10022000D52A84E0D82A28C098E0D92A25C0E0E160
:10023000DE2A22C0D7FC29C0892F80538A3070F46F
:10024000D6FE05C0989C902C1124980E15C0C89C11
:10025000C02C1124C80EF0E2DF2A0EC09E3229F411
:10026000D6FC61C140E4D42A07C09C3619F450E89A
:10027000D52A02C0983649F4F20123FD959123FF57
:1002800091912F01992309F0B8CF892F855483309C
:1002900018F08052833038F444E050E0A40EB51ECC
:1002A0005FE359830FC0933631F0933779F093357C
:1002B00009F052C01FC0F5018081898342E050E0FF
:1002C000A40EB51E710101E010E011C0F501E0803F
:1002D000F180D6FC03C06FEF7FEF02C0692D70E0A4
:1002E00042E050E0A40EB51EC7012FD18C015FE79C
:1002F000D52213C0F501E080F180D6FC03C06FEF7A
:100300007FEF02C0692D70E042E050E0A40EB51E00
:10031000C70110D18C0150E8D52AD3FE06C018C001
:10032000B30180E290E01CD1CA948C2D90E00817B4
:100330001907B0F30DC0F701D7FC8591D7FE819165
:100340007F01B30190E00CD1C110CA94015010405C
:100350000115110581F7E4C0943611F0993669F55D
:10036000D7FE08C0F501E080F1800281138144E0EE
:1003700050E00AC0F501808191817C010027F7FCE3
:100380000095102F42E050E0A40EB51E5FE6D52286
:1003900017FF0AC010950095F094E094E11CF11C41
:1003A000011D111D80E8D82A2AE030E0A101C80112
:1003B000B70102D1F82EF2183FC0953729F41D2D50
:1003C0001F7E2AE030E01DC01D2D197F9F3661F091
:1003D000903720F4983509F0A6C00FC0903739F057
:1003E000983709F0A0C004C028E030E00AC01061CE
:1003F00014FD146020E130E004C014FD166020E11B
:1004000032E017FF08C0F50160817181828193811C
:1004100044E050E008C0F50180819181BC0180E09A
:1004200090E042E050E0A40EB51EA101C5D0F82E28
:10043000F2188FE7D82ED122D6FE0BC05EEFD52260
:10044000F91438F4D4FE07C0D2FC05C08FEED822D0
:1004500002C01F2D01C0192DD4FE0DC0FE01EF0DED
:10046000F11D8081803319F499EED92208C01F5FF5
:10047000D2FE05C003C08D2D867809F01F5F0D2DBB
:10048000D3FC13C0D0FE0EC01C1510F09F2C0AC068
:100490009F2C9C0C911A1C2D05C0B30180E290E0AA
:1004A0005FD01F5F1C15C8F304C01C1510F4C11ADF
:1004B00001C0CC2404FF0FC0B30180E390E050D012
:1004C00002FF1CC001FD03C088E790E002C088E580
:1004D00090E0B3010CC0802F867881F001FF02C04C
:1004E0008BE201C080E2D7FC8DE2B30190E038D00E
:1004F00005C0B30180E390E033D09A94F914C8F3B7
:10050000FA94F101EF0DF11DB301808190E028D044
:10051000FF20B1F705C0B30180E290E021D0CA947A
:10052000CC20C9F74ECEF30166817781CB012B96A3
:10053000E2E1BCC0FC010590615070400110D8F7A9
:10054000809590958E0F9F1F0895FC01615070401B
:1005500001900110D8F7809590958E0F9F1F0895F8
:100560000F931F93CF93DF938C01EB018B8181FF5E
:100570001BC082FF0DC02E813F818C819D81281779
:10058000390764F4E881F9810193F983E88306C0AF
:10059000E885F985802F0995892B31F48E819F811B
:1005A00001969F838E8302C00FEF1FEFC801DF917A
:1005B000CF911F910F910895FA01AA27283051F188
:1005C000203181F1E8946F936E7F6E5F7F4F8F4F84
:1005D0009F4FAF4FB1E03ED0B4E03CD0670F781FE3
:1005E000891F9A1FA11D680F791F8A1F911DA11DC8
:1005F0006A0F711D811D911DA11D20D009F4689401
:100600003F912AE0269F11243019305D3193DEF6A8
:10061000CF010895462F4770405D4193B3E00FD05E
:10062000C9F7F6CF462F4F70405D4A3318F0495D49
:1006300031FD4052419302D0A9F7EACFB4E0A6952C
:100640009795879577956795BA95C9F7009761054E
:10065000710508959B01AC010A2E069457954795A4
:1006600037952795BA95C9F7620F731F841F951F99
:10067000A01D08952F923F924F925F926F927F92AA
:100680008F929F92AF92BF92CF92DF92EF92FF92A2
:100690000F931F93CF93DF93CDB7DEB7CA1BDB0B4E
:1006A0000FB6F894DEBF0FBECDBF09942A883988F3
:1006B00048885F846E847D848C849B84AA84B984FA
:1006C000C884DF80EE80FD800C811B81AA81B98106
:1006D000CE0FD11D0FB6F894DEBF0FBECDBFED011A
:0606E0000895F894FFCF1D
:1006E6002325640A0000000002000000003F00000D
:0406F6000000000000
:00000001FF
