:1000000012C02CC02BC02AC029C028C027C026C0BF
:1000100025C024C023C022C021C020C01FC01EC0D4
:100020001DC01CC01BC011241FBECFE5D4E0DEBF25
:10003000CDBF10E0A0E6B0E0EEE3F3E002C0059033
:100040000D92A03AB107D9F710E0A0EAB0E001C0E4
:100050001D92A63AB107E1F7A2D06FC1D1CF899A1C
:10006000889810BC87E689B988E18AB986E880BD9E
:1000700081E990E09093A3008093A20008951F93DC
:10008000182F8A3011F48DE0FADF5D9BFECF1CB98A
:1000900080E090E01F9108955F9BFECF8CB10895A2
:1000A0000F931F93181619060CF03AC040E050E069
:1000B00000EA6AEF70E010E6B0E5A0E902BB20E0DC
:1000C00030E0FB013197F1F72F5F3F4F29313105C8
:1000D000C1F712BB20E030E0FB013197F1F72F5F51
:1000E0003F4F29313105C1F7B2BB20E030E0FB01C1
:1000F0003197F1F72F5F3F4F29313105C1F7A2BB8F
:1001000020E030E0FB013197F1F72F5F3F4F2931BD
:100110003105C1F74F5F5F4F481759077CF23CC06C
:10012000009709F439C066277727681B790B20E010
:1001300030E000E94AEF50E010E5B0E6A0EA02BB8B
:1001400080E090E0FA013197F1F70196893191054D
:10015000C9F712BB80E090E0FA013197F1F7019600
:1001600089319105C9F7B2BB80E090E0FA0131977F
:10017000F1F7019689319105C9F7A2BB80E090E0C3
:10018000FA013197F1F7019689319105C9F72F5F8F
:100190003F4F261737079CF21F910F910895BF928A
:1001A000CF92DF92EF92FF920F931F93CF93DF9343
:1001B000899A889810BC87E689B988E18AB986E867
:1001C00080BD81E990E09093A3008093A20081B369
:1001D000806F81BB80EA82BB87B3866087BB86E085
:1001E00088BB84B38C6184BB8BE085BB80E090E0EE
:1001F00020E030E0F9013197F1F701968639910559
:10020000C9F783E185BB80E090E020E030E0F901B0
:100210003197F1F7019684369105C9F783E085BBE4
:1002200080E690E055D0CC24DD240AEF10E023E1F5
:10023000E22E93E0F92E8BE1B82EC0E0D0E083B33C
:100240008130C1F4C8010197F1F783B3813091F493
:10025000E5BA8FE090E024DFF5BA83B38330E9F7A5
:1002600080E090E0F6013197F1F701968A30910530
:10027000C9F7219683B38230C1F4C8010197F1F721
:1002800083B3823091F4E5BA8EE190E009DFF5BAEC
:1002900083B38330E9F780E090E0F6013197F1F71E
:1002A00001968A309105C9F72296C530D1050CF424
:1002B000C6CFB5BA85EB9FEFF3DE80E090E0F801A2
:1002C0003197F1F701968A309105C9F7F5BAB5CFA4
:1002D0000F931F93CF93DF938C01E091A200F091D5
:1002E000A300838181FF21C0C0E0D0E00DC0E09178
:1002F000A200F091A30020853185BF01F901099585
:10030000892B11F0CFEFDFEFF80181918F01882366
:1003100071F7E091A200F091A300208531858AE079
:10032000BF01F9010995892B11F0CFEFDFEFCE0165
:0E033000DF91CF911F910F910895F894FFCFA8
:10033E00454341202D20457374727574757261208A
:10034E00436F6E74726F6C61646F726120646520AE
:10035E006D6F746F726573204176616E6361646157
:10036E000000000002000000003F0000000000003E
:00000001FF
