:100000000CC00DC225C024C023C022C021C020C006
:100010001FC01EC01DC01CC01BC011241FBECFE5C9
:10002000D2E0DEBFCDBF10E0A0E6B0E0E0E9F7E04F
:1000300003C0C89531960D92AE36B107D1F710E0E6
:10004000AEE6B0E001C01D92A538B107E1F7CEC21F
:10005000D7CF282FC19830E0ECEDF5E027FF02C0A4
:10006000C09A01C0C098C19A8E2F9F2F0197F1F7B7
:10007000C1983F5F383011F0220FF0CF08958130E2
:1000800039F08130D0F0823051F08330B1F40EC0BD
:10009000959A84EC99E00197F1F795980895969ACE
:1000A00084EC99E00197F1F796980895979A84EC7B
:1000B00099E00197F1F797980895949A84EC99E064
:1000C0000197F1F7949808951F93182F80E0C1DFEE
:1000D000812FD5DF1F9108951F93182F6D3040F4A5
:1000E000E62FFF27E05AFF4F8081B3DF812FC7DF64
:1000F0001F910895282F8A3010F430E009C06AE07B
:10010000EDD2382F3295307F822FE8D2892F8F7031
:10011000382B832F99270895A29AA998AA98AA9A6A
:100120000895982F8FEF84BB30E021E0A89890FDD0
:10013000A89AA99A822F8A95F1F7A998822F8A9571
:10014000F1F73F5F383011F09695F0CF0895A09AFF
:10015000A898A09820E030E091E083B33695879589
:1001600088278795382BA99A892F8A95F1F7A9981E
:10017000892F8A95F1F72F5F243079F740E090E0DE
:1001800021E083B39695879588278795982BA99A20
:10019000822F8A95F1F7A998822F8A95F1F74F5F00
:1001A000443079F732953F7092959F70892F992747
:1001B0006AE070E081D2380F832F992708951F934A
:1001C000182FAADF812FADDFC2DFAA98A99899273F
:1001D0001F9108950F931F93182F062F9DDF812FD6
:1001E000A0DF802F9EDFAA98A9981F910F910895F4
:1001F00060E08EE8EFDF60E080E9ECDF0895809159
:100200006F0078DF682F84E8E5DF80917C0072DF83
:10021000682F82E8DFDF809175006CDF682F80E84F
:10022000D9DF089585E8CBDF80936F0083E8C7DFCF
:1002300080937C0081E8C3DF809375000895A1E07E
:10024000B0E0E4E2F1E07CC2898320E030E0A998EC
:1002500089819927022E02C0959587950A94E2F725
:1002600080FF02C0A89A01C0A898A99A2F5F3F4FAB
:100270002830310561F7E2E021967EC2A99AAD9A55
:100280008AEADDDFA898A098AD9A809173009091DA
:10029000740020E0A99896958795989B02C091607C
:1002A00001C09E7FA99A2F5F2930A1F79093740017
:1002B00080937300AD988FEF84BB08958CEABFDF05
:1002C000A898A098AD9A90E0A99883B3A99A9F5F47
:1002D0009730D1F78FEF84BBAD980895A99AAD9A66
:1002E0008CE0ADDF82E0ABDFAD9884EC99E0019764
:1002F000F1F781E080937E000895A99AAD9A8EEE81
:100300009EDFAD980895A99AAD9A82E298DFAD98E4
:1003100008958BE2809378002091730030917400EF
:1003200030FF0CC08DE28093780088279927821BCC
:10033000930B90709093740080937300809173007E
:1003400090917400969587959093740080937300B4
:100350000895D3DF84EC99E00197F1F7D4DF8EDFC5
:10036000D8DF08950F931F93CF93DF93882309F16C
:10037000F0DF20917300309174002A30310560F075
:10038000932F822F6AE070E0B5D1462F932F822FF2
:100390006AE070E0AFD102C0822F40E0409381005C
:1003A000809382008BE0809383008CE080938400B4
:1003B00022C0209172002A3010F430E007C0822F52
:1003C0006AE08CD1382F822F89D1292F3093810078
:1003D00020938200209171002A3010F430E007C091
:1003E000822F6AE07BD1382F822F78D1292F30934A
:1003F000830020938400C0E0D0E001E810E0F12FFA
:10040000E02F61910E2F1F2F8C2F66DE2196C430B6
:10041000D105A9F7DF91CF911F910F9108951F92F8
:100420000F920FB60F9211248F939F9380917A00B1
:100430008F5F80937A008C3339F510927A00909117
:1004400070009F5F90937000809179008F5F809320
:1004500079009C33C8F010927000809171008F5F1A
:100460008093710091E090937F008C3368F010923C
:100470007100809172008F5F80937200909377007B
:10048000883110F0109272009F918F910F900FBEE3
:100490000F901F901895109270001092710010929A
:1004A000720010927A0010927F00109277001092E2
:1004B00081001092820010928300109284000895AF
:1004C00082E085BF80E48BBF089588E388BB87EC1A
:1004D00087BB15BA8FEF84BB12BA8BEF81BB08952F
:1004E00010927000109271001092720010927A00B7
:1004F00080E038DF089530E0A4EFB1E0AB9A20E06F
:100500008A2F9B2F0197F1F72F5F2436C9F7AB98FD
:1005100020E0EAEFF0E08E2F9F2F0197F1F72F5F99
:100520002436C9F73F5F323049F708958091720051
:1005300080936F008091710080937C0080917000A7
:10054000809375005CDE08951BBE10927A001092B5
:1005500070001BC0B49904C0B39902C0B59BC0DF42
:10056000209172002F5F2093720030E0E4ECF9E0FC
:100570008E2F9F2F0197F1F73F5F3A30C9F728314F
:1005800010F01092720080E0EDDEB49902C0B39BCF
:10059000E1CFCCDF80E48BBF08951BBE10927A00C0
:1005A000109270001BC0B49904C0B39902C0B59BEF
:1005B00097DF209171002F5F2093710030E0E4EC11
:1005C000F9E08E2F9F2F0197F1F73F5F3A30C9F77F
:1005D0002C3310F01092710080E0C4DEB49902C098
:1005E000B59BE1CFA3DF80E48BBF0895CFE5D2E0D8
:1005F000DEBFCDBFF89469DF4EDF7894C29AC09A0F
:10060000C19AC298AA98AD9820E0C4ECD9E08C2F8A
:100610009D2F0197F1F72F5F2436C9F761DFE8DDE1
:100620008C2F9D2F0197F1F759DE93DE2197F1F77B
:10063000F9DD80916F008093720080917C0080933F
:100640007100809175008093700080E08BDE1092C5
:100650007B001092790082E085BF80E48BBFB49963
:1006600002C0B39B71DFB49902C0B59B96DF809145
:1006700079008530C9F480917B00882369F080E09F
:1006800071DEAC9A10927B0080917700882351F044
:1006900032DF1092770003C081E064DEAC9881E025
:1006A00080937B001092790080917F008823B9F2BB
:1006B0003DDF10927F00D3CF5527002480FF02C07A
:1006C000060E571F660F771F6115710521F096956D
:1006D0008795009799F7952F802D0895991B79E0BC
:1006E00004C0991F961708F0961B881F7A95C9F7C2
:1006F00080950895AA1BBB1B51E107C0AA1FBB1F11
:10070000A617B70710F0A61BB70B881F991F5A959D
:10071000A9F780959095682F792F8A2F9B2F0895A0
:100720002F923F924F925F926F927F928F929F9201
:10073000AF92BF92CF92DF92EF92FF920F931F93EF
:10074000CF93DF93CDB7DEB7CA1BDB0B0FB6F894A0
:10075000DEBF0FBECDBF09942A88398848885F84E0
:100760006E847D848C849B84AA84B984C884DF8051
:10077000EE80FD800C811B81AA81B981CE0FD11D35
:100780000FB6F894DEBF0FBECDBFCA2FDB2F089582
:0E079000EE0A763E9ABCFC0EFE9E0196E40038
:00000001FF
