:100000000C9434000C9446000C9446000C9446006A
:100010000C9446000C9446000C9446000C94460048
:100020000C9446000C9446000C9446000C94460038
:100030000C9446000C9446000C9446000C94460028
:100040000C9446000C9446000C940B010C94460052
:100050000C9446000C9446000C9446000C94460008
:100060000C9446000C94460011241FBECFEFD4E040
:10007000DEBFCDBF11E0A0E0B1E001C01D92A23112
:10008000B107E1F70E9491010C9471020C940000F9
:100090005E98E0E0F1E090E00DC0990F4D9991601D
:1000A0005C9A5C988F5F8830C1F7919381E0E4306F
:1000B000F80711F080E0F1CF5E9A08955E9A82E32E
:1000C0008A95F1F730E042E311C0990F97FF02C023
:1000D0005D9A01C05D985C9A842F8A95F1F75C98CF
:1000E0002F5F283091F73F5F353019F020E097EE11
:1000F000EDCFE8E0F1E032E3208190E027FF02C09D
:100100005D9A01C05D985C9A832F8A95F1F75C989F
:100110009F5F983011F0220FF1CF319681E0EC30E3
:10012000F80751F75E980895559A5E9882E3982FE4
:100130009A95F1F75A9A8A95F1F740E052E314C084
:10014000880F991FAA1FBB1F87FF02C05D9A01C0BD
:100150005D985C9A252F2A95F1F75C983F5F3830BF
:1001600079F74F5F453031F087EE90E0A0E0B0E0E6
:1001700030E0EACF81E29EE6A3EAB0E030E052E36D
:10018000A7FF02C05D9A01C05D985C9A42E3252FEB
:100190002A95F1F75C983F5F383129F0880F991F55
:1001A000AA1FBB1FEDCF5E98842F8A95F1F75A984E
:1001B000842F8A95F1F78AB1877D8AB95E9A842F58
:1001C0008A95F1F75A980895559A5E9882E3982F88
:1001D0009A95F1F75A9A8A95F1F730E080E29EE617
:1001E000A3EAB0E042E3A7FF02C05D9A01C05D98B8
:1001F0005C9A242F2A95F1F75C983F5F383129F0FB
:10020000880F991FAA1FBB1FEECF5E9882E38A95C5
:10021000F1F75A9808951F920F920FB60F9211247A
:100220002F933F934F935F936F937F938F939F93FE
:10023000AF93BF93EF93FF93F8948091C6008093A0
:100240000A01809309010E94E4000E945E000E945E
:100250009400909109018091C00085FFFCCF90939C
:10026000C6007894FF91EF91BF91AF919F918F91CC
:100270007F916F915F914F913F912F910F900FBEA2
:100280000F901F90189584B18E6084B91092B300BE
:10029000EAE8F0E0118210828081918190938900D8
:1002A0008093880089E08093810081EA80938000B8
:1002B00083E88093B00081E08093B100089586E5E3
:1002C0008AB981E088B917B81092C50087E6809393
:1002D000C40088E98093C1008EE08093C200089535
:1002E0008091C00087FFFCCF8091C6000895982FB1
:1002F0008091C00085FFFCCF9093C6000895982F91
:1003000080538A3068F08151863010F4865F0895FA
:10031000892F8156863010F080E00895892F875507
:1003200008950F931F930E945F010E944301109252
:1003300089001092880080918800909189009093A4
:100340008B0080938A0080918A0090918B0080932B
:10035000B30010920001109201011092020110925C
:1003600003018BE3809308018AE280930B010E94D2
:10037000940078944B9BFECF0E944800809100012E
:100380008B33C1F79091010180910201981791F789
:10039000809103018A3271F78091050180930401F5
:1003A00080910601809305018091070180930601E9
:1003B000909307018091070190E00E943E02809196
:1003C0000401823521F080910401823791F48091FB
:1003D00007018B3371F4809105010E947F01182F72
:1003E000809106010E947F011295107F180F1093D3
:1003F000B30080910401873421F080910401873695
:10040000C9F4809107018B33A9F4809105010E9402
:100410007F01082F809106010E947F0110E0F4E027
:10042000000F111FFA95E1F7080F111D10938B00B3
:1004300000938A0080910401823429F080910401A4
:10044000823609F097CF809107018B3309F092CF64
:10045000809105010E947F01082F809106010E9472
:100460007F0110E0E4E0000F111FEA95E1F7080FAB
:10047000111D10938900009388007CCF60910E01BC
:1004800070910F010E94450208950F931F93CF931F
:10049000DF938C01EB018B8181FF1BC082FF0DC0BC
:1004A0002E813F818C819D812817390764F4E88172
:1004B000F9810193F983E88306C0E885F985802FE7
:1004C0000995892B31F48E819F8101969F838E83BC
:1004D00002C00FEF1FEFC801DF91CF911F910F9165
:0604E0000895F894FFCF1F
:00000001FF
