:100000000C9434000C9446000C9446000C9446006A
:100010000C9446000C9446000C9446000C94460048
:100020000C9446000C9446000C9446000C94460038
:100030000C9446000C9446000C9446000C94460028
:100040000C9446000C9446000C940B010C94460052
:100050000C9446000C9446000C9446000C94460008
:100060000C9446000C94460011241FBECFEFD4E040
:10007000DEBFCDBF11E0A0E0B1E001C01D92A8300D
:10008000B107E1F70E9456010C94D0010C940000D6
:100090002998E0E0F1E090E00DC0990F4F99916050
:1000A0002D9A2D988F5F8830C1F7919381E0E430CD
:1000B000F80711F080E0F1CF299A0895299A82E398
:1000C0008A95F1F730E042E311C0990F97FF02C023
:1000D0005F9A01C05F982D9A842F8A95F1F72D9829
:1000E0002F5F283091F73F5F353019F020E097EE11
:1000F000EDCFE4E0F1E032E3208190E027FF02C0A1
:100100005F9A01C05F982D9A832F8A95F1F72D98F9
:100110009F5F983011F0220FF1CF319681E0E830E7
:10012000F80751F729980895579A299882E3982F4C
:100130009A95F1F72A9A8A95F1F740E052E314C0B4
:10014000880F991FAA1FBB1F87FF02C05F9A01C0BB
:100150005F982D9A252F2A95F1F72D983F5F38301B
:1001600079F74F5F453031F030E087EE90E0A0E066
:10017000B0E0EACF30E085E09EE6A3EAB0E052E3EB
:10018000A7FF02C05F9A01C05F982D9A42E3252F16
:100190002A95F1F72D983F5F383129F0880F991F84
:1001A000AA1FBB1FEDCF2998842F8A95F1F72A98B3
:1001B000842F8A95F1F78AB18F738AB9299A842F8F
:1001C0008A95F1F72A980895579A299882E3982FEB
:1001D0009A95F1F72A9A8A95F1F730E084E09EE645
:1001E000A3EAB0E042E3A7FF02C05F9A01C05F98B4
:1001F0002D9A242F2A95F1F72D983F5F383129F059
:10020000880F991FAA1FBB1FEECF299882E38A95FA
:10021000F1F72A9808951F920F920FB60F921124AA
:100220002F933F934F935F936F937F938F939F93FE
:10023000AF93BF93EF93FF93F8948091C6008093A0
:100240000601809305010E94E4000E945E000E9466
:1002500094007894FF91EF91BF91AF919F918F910E
:100260007F916F915F914F913F912F910F900FBEB2
:100270000F901F901895239A83E88093B00081E037
:100280008093B100089597E097B986E284B998B950
:10029000519A50981092C50087E68093C40088E96F
:1002A0008093C1008EE08093C2000895DF92EF92A8
:1002B000FF920F931F930E944301239A83E8809338
:1002C000B00081E08093B1001092B3001092000161
:1002D0001092010110920201109203018BE38093AE
:1002E00004018AE2809307010E9494007894DD243F
:1002F000DA94F0E8EF2EE0E4FE2E00E218E04E9BE8
:1003000016C00E944800809100018B3381F49091C7
:10031000010180910201981751F4809103018A3202
:1003200031F48091C00085FFFCCF9093C60090917E
:100330000101892F8053863010F7903319F4109201
:10034000B300DDCF913319F41093B300D8CF9233BB
:1003500019F40093B300D3CF933319F4F092B300A0
:10036000CECF943319F4E092B300C9CF953339F668
:10037000D092B300C4CF8091C00087FFFCCF8091A2
:10038000C60008950197F1F708958A95F1F7089549
:10039000982F8091C00085FFFCCF9093C6000895F0
:0403A000F894FFCFFF
:00000001FF
