:100000000C9434000C9451000C9451000C94510049
:100010000C9451000C9451000C9451000C9451001C
:100020000C9451000C9451000C9451000C9451000C
:100030000C9451000C9451000C9451000C945100FC
:100040000C9451000C9451000C94BD010C9451007F
:100050000C9451000C9451000C9451000C945100DC
:100060000C9451000C94510011241FBECFEFD4E02A
:10007000DEBFCDBF11E0A0E0B1E0EEEDFBE002C0DD
:1000800005900D92AE34B107D9F711E0AEE4B1E0BE
:1000900001C01D92AA35B107E1F70E94FD000C9442
:1000A000ED050C940000519A50981092C50087E617
:1000B0008093C40088E98093C10086E08093C200E9
:1000C00080E491E0909357018093560108951F9327
:1000D000182F8A3019F48DE00E9467008091C000CB
:1000E00085FFFCCF1093C60080E090E01F9108953B
:1000F0008091C00087FFFCCF8091C60008951092C8
:10010000B90088E48093B8000895982F84EA80931A
:10011000BC008091BC0087FFFCCF8091B900887F34
:10012000883021F0803111F081E008959093BB0078
:1001300084E88093BC008091BC0087FFFCCF909145
:10014000B900987F983111F480E0089580E09034F0
:1001500009F081E0089584E98093BC008091BC009F
:1001600084FDFCCF08958093BB0084E88093BC009D
:100170008091BC0087FFFCCF8091B90090E0887F20
:10018000883209F091E0892F089584EC8093BC00B7
:100190008091BC0087FFFCCF8091BB00089584E86C
:1001A0008093BC008091BC0087FFFCCF8091BB0096
:1001B00008951F93CF93DF93182FEB016F3F7105C5
:1001C00009F0BCF480ED0E948500812F0E94B300ED
:1001D0008C2F0E94B30084E98093BC008091BC0006
:1001E00090E09C012071307084FDF8CFC901019727
:1001F000F1F7DF91CF911F9108950E945300109263
:10020000B90088E48093B80080E091E00E94040384
:1002100080ED0E94850080E00E94B30084E9809315
:10022000BC008091BC0090E09C012071307084FD86
:10023000F8CFC9010197F1F781ED0E94850084ECA8
:100240008093BC008091BC0087FFFCCF4091BB0035
:1002500050E0CA01E4E095958795EA95E1F79C01A5
:1002600073E0220F331F7A95E1F7880F991F280F4B
:10027000391F4F705070240F351F30935301209356
:10028000520184EC8093BC008091BC0087FFFCCFBE
:100290004091BB0050E0CA01B4E095958795BA95AE
:1002A000E1F79C01A3E0220F331FAA95E1F7880F25
:1002B000991F280F391F4F705070240F351F30932E
:1002C00051012093500184E88093BC008091BC00D0
:1002D00087FFFCCF4091BB0050E0CA01E4E0959558
:1002E0008795EA95E1F79C0173E0220F331F7A9519
:1002F000E1F7880F991F280F391F4F705070240F96
:10030000351F30934F0120934E0120914E013091C3
:100310004F014091500150915101609152017091F3
:1003200053018DB79EB708970FB6F8949EBF0FBEC6
:100330008DBFEDB7FEB7319681E191E0ADB7BEB7A5
:1003400012969C938E931197338322835583448313
:10035000778366830E94E80284E98093BC008DB7AE
:100360009EB708960FB6F8949EBF0FBE8DBF8091C2
:10037000BC0084FDFCCF7894FFCF1F920F920FB684
:100380000F9211240F931F932F933F934F935F93DB
:100390006F937F938F939F93AF93BF93CF93DF938D
:1003A000EF93FF938091C00087FFFCCF8091C60040
:1003B000843709F0F8C087E090E060E170E00E94C7
:1003C000D90000D081E291E0EDB7FEB7928381833E
:1003D0000E94E8020F900F908091C00087FFFCCF31
:1003E0008091C600C82FD0E0E09700D000D087E20F
:1003F00091E0EDB7FEB792838183D483C3830E94DB
:10040000E8020F900F900F900F908091C00087FF2F
:10041000FCCF0091C60010E00053104000D000D087
:1004200087E291E0EDB7FEB7928381831483038363
:100430000E94E8020F900F900F900F90B4E0CC0F45
:10044000DD1FBA95E1F7C00FD11F82E090E0BE0139
:100450000E94D9008AE090E00E94FD0200D08AE26A
:1004600091E0EDB7FEB7928381830E94E8020F907E
:100470000F908091C00087FFFCCF8091C600C82FED
:10048000D0E0E09700D000D087E291E0EDB7FEB772
:1004900092838183D483C3830E94E8020F900F90DC
:1004A0000F900F908091C00087FFFCCF0091C60095
:1004B00010E00053104000D000D087E291E0EDB78B
:1004C000FEB792838183148303830E94E8020F9016
:1004D0000F900F900F90A4E0CC0FDD1FAA95E1F7CD
:1004E000C00FD11F81E090E0BE010E94D9008AE0D8
:1004F00090E00E94FD0200D082E391E0EDB7FEB7EC
:10050000928381830E94E8020F900F908091C00037
:1005100087FFFCCF8091C600C82FD0E0E09700D0C5
:1005200000D087E291E0EDB7FEB792838183D48358
:10053000C3830E94E8020F900F900F900F9080915C
:10054000C00087FFFCCF0091C60010E000531040B0
:1005500000D000D087E291E0EDB7FEB792838183AF
:10056000148303830E94E8020F900F900F900F9066
:10057000F4E0CC0FDD1FFA95E1F7C00FD11F80E04A
:1005800090E0BE010E94D9008AE090E00E94FD0246
:1005900000D08BE391E0EDB7FEB7928381830E9498
:1005A000E8020F900F90FF91EF91DF91CF91BF91F3
:1005B000AF919F918F917F916F915F914F913F91FB
:1005C0002F911F910F910F900FBE0F901F901895B4
:1005D000A0E0B0E0EEEEF2E00C94C605FE01359628
:1005E000619171918091560190915701AF010E94E4
:1005F00039032096E2E00C94E20560915601709177
:1006000057010E942C0508950F931F93CF93DF93FA
:100610008C01E0915601F0915701838181FF21C047
:10062000C0E0D0E00DC0E0915601F0915701208567
:100630003185BF01F9010995892B11F0CFEFDFEF6B
:10064000F80181918F01882371F7E0915601F091B3
:100650005701208531858AE0BF01F9010995892B71
:1006600011F0CFEFDFEFCE01DF91CF911F910F910E
:100670000895ABE0B0E0EFE3F3E00C94B6053C0185
:100680002B015A01FC0117821682838181FD03C070
:100690006FEF7FEFC6C19AE0892E1E010894211CDE
:1006A000311CF3012381F20123FD859123FF819108
:1006B0002F01882309F4B2C1853239F423FD8591D5
:1006C00023FF81912F01853229F490E0B3010E942C
:1006D0002C05E7CF982FFF24EE249924FFE1FF1586
:1006E000D0F09B3269F09C3228F4903259F093326A
:1006F00091F40EC09D3249F0903369F441E024C07A
:1007000052E0F52A84E0F82A28C098E0F92A25C0AA
:10071000E0E1FE2A22C0F7FC29C0892F80538A30ED
:1007200070F4F6FE05C0989C902C1124980E15C00C
:10073000E89CE02C1124E80EF0E2FF2A0EC09E3265
:1007400029F4F6FC6BC140E4F42A07C09C3619F486
:1007500050E8F52A02C0983649F4F20123FD95913C
:1007600023FF91912F01992309F0B8CF892F855448
:10077000833018F08052833038F444E050E0A40E07
:10078000B51E5FE359830FC0933631F0933779F08C
:10079000933509F056C020C0F5018081898342E07D
:1007A00050E0A40EB51E610101E010E012C0F50199
:1007B000C080D180F6FC03C06FEF7FEF02C0692DCF
:1007C00070E042E050E0A40EB51EC6010E94210573
:1007D0008C015FE7F52214C0F501C080D180F6FCE2
:1007E00003C06FEF7FEF02C0692D70E042E050E080
:1007F000A40EB51EC6010E9416058C0150E8F52A0C
:10080000F3FE07C01AC080E290E0B3010E942C05FD
:10081000EA948E2D90E008171907A8F30EC0F60190
:10082000F7FC8591F7FE81916F0190E0B3010E9482
:100830002C05E110EA94015010400115110579F7DB
:10084000EAC0943611F0993669F5F7FE08C0F50153
:10085000208131814281538184E090E00AC0F5011A
:10086000808191819C01442737FD4095542F82E07F
:1008700090E0A80EB91E9FE6F92257FF09C05095D7
:100880004095309521953F4F4F4F5F4FE0E8FE2A4E
:10089000CA01B901A1012AE030E00E945805D82E12
:1008A000D21840C0953729F41F2D1F7E2AE030E072
:1008B0001DC01F2D197F9F3661F0903720F49835A9
:1008C00009F0ACC00FC0903739F0983709F0A6C0D6
:1008D00004C028E030E00AC0106114FD146020E17B
:1008E00030E004C014FD166020E132E017FF08C0BC
:1008F000F501608171818281938144E050E008C0FC
:10090000F50180819181BC0180E090E042E050E0FF
:10091000A40EB51EA1010E945805D82ED2188FE74B
:10092000F82EF122F6FE0BC05EEFF522D91438F452
:10093000F4FE07C0F2FC05C08FEEF82202C01D2DA8
:1009400001C0192DF4FE0DC0FE01ED0DF11D8081D9
:10095000803319F499EEF92208C01F5FF2FE05C03A
:1009600003C08F2D867809F01F5F0F2DF3FC14C094
:10097000F0FE0FC01E1510F09D2C0BC09D2C9E0C80
:10098000911A1E2D06C080E290E0B3010E942C0552
:100990001F5F1E15C0F304C01E1510F4E11A01C03C
:1009A000EE2404FF0FC080E390E0B3010E942C0509
:1009B00002FF1DC001FD03C088E790E00EC088E57E
:1009C00090E00BC0802F867891F001FF02C08BE28F
:1009D00001C080E2F7FC8DE290E0B3010E942C059B
:1009E00006C080E390E0B3010E942C059A94D914CC
:1009F000C0F3DA94F101ED0DF11D808190E0B301B7
:100A00000E942C05DD20A9F706C080E290E0B3012A
:100A10000E942C05EA94EE20C1F743CEF3016681D3
:100A20007781CB012B96E2E10C94D205FC01059075
:100A3000615070400110D8F7809590958E0F9F1FE0
:100A40000895FC016150704001900110D8F7809525
:100A500090958E0F9F1F08950F931F93CF93DF9351
:100A60008C01EB018B8181FF1BC082FF0DC02E81A9
:100A70003F818C819D812817390764F4E881F981D1
:100A80000193F983E88306C0E885F985802F0995ED
:100A9000892B31F48E819F8101969F838E8302C0C2
:100AA0000FEF1FEFC801DF91CF911F910F910895B4
:100AB000FA01AA27283051F1203181F1E8946F938F
:100AC0006E7F6E5F7F4F8F4F9F4FAF4FB1E03ED035
:100AD000B4E03CD0670F781F891F9A1FA11D680FD3
:100AE000791F8A1F911DA11D6A0F711D811D911D06
:100AF000A11D20D009F468943F912AE0269F11247B
:100B00003019305D3193DEF6CF010895462F4770DE
:100B1000405D4193B3E00FD0C9F7F6CF462F4F7039
:100B2000405D4A3318F0495D31FD4052419302D097
:100B3000A9F7EACFB4E0A69597958795779567953D
:100B4000BA95C9F700976105710508959B01AC013D
:100B50000A2E06945795479537952795BA95C9F764
:100B6000620F731F841F951FA01D08952F923F923F
:100B70004F925F926F927F928F929F92AF92BF92AD
:100B8000CF92DF92EF92FF920F931F93CF93DF9359
:100B9000CDB7DEB7CA1BDB0B0FB6F894DEBF0FBEB6
:100BA000CDBF09942A88398848885F846E847D8403
:100BB0008C849B84AA84B984C884DF80EE80FD8005
:100BC0000C811B81AA81B981CE0FD11D0FB6F8947B
:0E0BD000DEBF0FBECDBFED010895F894FFCF3C
:100BDE0053657269616C2070726F6E74612E2E2E69
:100BEE0000252E32643A252E32643A252E32640ABE
:100BFE0000686F72613A002564006D696E75746FDE
:100C0E003A00736567756E646F3A00444F4E450047
:0E0C1E0000000002000000006700000000005F
:00000001FF
