:1000000012C02CC02BC02AC029C028C027C026C0BF
:1000100025C024C023C022C021C020C01FC01EC0D4
:100020001DC01CC01BC011241FBECFE5D4E0DEBF25
:10003000CDBF11E0A0E6B0E0E0EDF7E002C0059032
:100040000D92A434B107D9F711E0A4E4B1E001C0E6
:100050001D92AA34B107E1F723D0B8C3D1CF899A52
:10006000889810BC87E689B988E18AB986E880BD9E
:1000700086E391E0909347018093460108951F9392
:10008000182F8A3011F48DE0FADF5D9BFECF1CB98A
:1000900080E090E01F9108955F9BFECF8CB10895A2
:1000A000AF92BF92CF92DF92EF92FF921F93CF93C6
:1000B000DF93899A889810BC87E689B988E18AB964
:1000C00086E880BD86E391E09093470180934601E6
:1000D00080E690E0A1D02CE2A22E21E0B22E92E3A5
:1000E000C92E91E0D92E83E2E82E81E0F82E5F9BA5
:1000F000FECF8CB18D3651F48FE790E08DD086EB3A
:1001000090E08AD08EEE90E087D0F1CF823769F50B
:1001100082E790E07BD05F9BFECF8CB1282F30E050
:1001200020533040E199FECFC901805090409FBBE1
:100130008EBBE09A8DB300D000D000D0EDB7FEB7F3
:100140003196ADB7BEB71296FC92EE9211973383FB
:1001500022838483158248D0EDB7FEB736960FB65A
:10016000F894FEBF0FBEEDBFC2CF873709F0BFCFF7
:1001700087E790E04BD05F9BFECF8CB1C82FD0E0DB
:10018000E09700D000D0ADB7BEB71296BC92AE9249
:1001900011971496DC93CE93139726D00F900F905F
:1001A0000F900F905F9BFECF1CB100D000D0EDB739
:1001B000FEB73196ADB7BEB71296DC92CE921197CC
:1001C0001283138211D00F900F900F900F90E1992E
:1001D000FECFC050D040DFBBCEBB1DBB0FB6F894E6
:1001E000E29AE19A0FBE83CFA0E0B0E0E9EFF0E041
:1001F000C6C2FE0135966191719180914601909140
:100200004701AF013ED02096E2E0D5C260914601A1
:10021000709147011AD208950F931F93CF93DF93E4
:100220008C01E0914601F0914701838181FF21C05B
:10023000C0E0D0E00DC0E0914601F091470120857B
:100240003185BF01F9010995892B11F0CFEFDFEF5F
:10025000F80181918F01882371F7E0914601F091B7
:100260004701208531858AE0BF01F9010995892B75
:1002700011F0CFEFDFEFCE01DF91CF911F910F9102
:100280000895ABE0B0E0E6E4F1E069C23C012B0187
:100290005A01FC0117821682838181FD03C06FEF32
:1002A0007FEFB9C19AE0892E1E010894211C311CF0
:1002B000F3012381F20123FD859123FF81912F0119
:1002C000882309F4A5C1853239F423FD859123FFE4
:1002D00081912F01853221F490E0B301B6D1E8CFAE
:1002E000982FFF24EE249924FFE1FF15D0F09B32D4
:1002F00069F09C3228F4903259F0933291F40EC098
:100300009D3249F0903369F441E024C052E0F52A6F
:1003100084E0F82A28C098E0F92A25C0E0E1FE2A06
:1003200022C0F7FC29C0892F80538A3070F4F6FE72
:1003300005C0989C902C1124980E15C0E89CE02CC8
:100340001124E80EF0E2FF2A0EC09E3229F4F6FCDA
:100350005FC140E4F42A07C09C3619F450E8F52A3E
:1003600002C0983649F4F20123FD959123FF919143
:100370002F01992309F0B8CF892F8554833018F0C5
:100380008052833038F444E050E0A40EB51E5FE3A1
:1003900059830FC0933631F0933779F0933509F0D4
:1003A00052C01FC0F5018081898342E050E0A40E55
:1003B000B51E610101E010E011C0F501C080D180DF
:1003C000F6FC03C06FEF7FEF02C0692D70E042E0E2
:1003D00050E0A40EB51EC6012DD18C015FE7F522B9
:1003E00013C0F501C080D180F6FC03C06FEF7FEF32
:1003F00002C0692D70E042E050E0A40EB51EC601B7
:100400000ED18C0150E8F52AF3FE06C018C080E238
:1004100090E0B3011AD1EA948E2D90E008171907E5
:10042000B0F30DC0F601F7FC8591F7FE81916F01E5
:1004300090E0B3010AD1E110EA9401501040011597
:10044000110581F7E2C0943611F0993661F5F7FE97
:1004500008C0F501208131814281538184E090E020
:100460000AC0F501808191819C01442737FD4095A8
:10047000542F82E090E0A80EB91E9FE6F92257FFA4
:1004800009C050954095309521953F4F4F4F5F4F94
:10049000E0E8FE2ACA01B901A1012AE030E001D159
:1004A000D82ED2183FC0953729F41F2D1F7E2AE081
:1004B00030E01DC01F2D197F9F3661F0903720F46A
:1004C000983509F0A5C00FC0903739F0983709F07A
:1004D0009FC004C028E030E00AC0106114FD146021
:1004E00020E130E004C014FD166020E132E017FF87
:1004F00008C0F501608171818281938144E050E000
:1005000008C0F50180819181BC0180E090E042E06B
:1005100050E0A40EB51EA101C4D0D82ED2188FE78A
:10052000F82EF122F6FE0BC05EEFF522D91438F456
:10053000F4FE07C0F2FC05C08FEEF82202C01D2DAC
:1005400001C0192DF4FE0DC0FE01ED0DF11D8081DD
:10055000803319F499EEF92208C01F5FF2FE05C03E
:1005600003C08F2D867809F01F5F0F2DF3FC13C099
:10057000F0FE0EC01E1510F09D2C0AC09D2C9E0C86
:10058000911A1E2D05C080E290E0B3015ED01F5F7E
:100590001E15C8F304C01E1510F4E11A01C0EE24A4
:1005A00004FF0EC080E390E0B3014FD002FF1BC0F8
:1005B00001FD03C088E790E00EC088E590E00BC025
:1005C000802F867881F001FF02C08BE201C080E2BB
:1005D000F7FC8DE290E0B30138D005C080E390E0F5
:1005E000B30133D09A94D914C8F3DA94F101ED0D24
:1005F000F11D808190E0B30128D0DD20B1F705C066
:1006000080E290E0B30121D0EA94EE20C9F750CE09
:10061000F30166817781CB012B96E2E1BCC0FC013E
:100620000590615070400110D8F7809590958E0F1D
:100630009F1F0895FC016150704001900110D8F790
:10064000809590958E0F9F1F08950F931F93CF93C2
:10065000DF938C01EB018B8181FF1BC082FF0DC0FA
:100660002E813F818C819D812817390764F4E881B0
:10067000F9810193F983E88306C0E885F985802F25
:100680000995892B31F48E819F8101969F838E83FA
:1006900002C00FEF1FEFC801DF91CF911F910F91A3
:1006A0000895FA01AA27283051F1203181F1E89408
:1006B0006F936E7F6E5F7F4F8F4F9F4FAF4FB1E055
:1006C0003ED0B4E03CD0670F781F891F9A1FA11D50
:1006D000680F791F8A1F911DA11D6A0F711D811D51
:1006E000911DA11D20D009F468943F912AE0269F16
:1006F00011243019305D3193DEF6CF010895462F75
:100700004770405D4193B3E00FD0C9F7F6CF462F55
:100710004F70405D4A3318F0495D31FD40524193BE
:1007200002D0A9F7EACFB4E0A6959795879577957B
:100730006795BA95C9F700976105710508959B0102
:10074000AC010A2E06945795479537952795BA958B
:10075000C9F7620F731F841F951FA01D08952F9264
:100760003F924F925F926F927F928F929F92AF9241
:10077000BF92CF92DF92EF92FF920F931F93CF938E
:10078000DF93CDB7DEB7CA1BDB0B0FB6F894DEBF25
:100790000FBECDBF09942A88398848885F846E844B
:1007A0007D848C849B84AA84B984C884DF80EE8095
:1007B000FD800C811B81AA81B981CE0FD11D0FB69E
:1007C000F894DEBF0FBECDBFED010895F894FFCFC2
:1007D000454550524F4D20544553543A2050726570
:1007E0007373206D20666F72206D656E752E0050DC
:1007F0007265737320726E20746F2072656164205D
:1008000061206368617220746F20706F736974690E
:100810006F6E20226E22206F6620746865206565E9
:1008200070726F6D2E00507265737320776E207436
:100830006F2077726974652061206368617220742B
:100840006F20706F736974696F6E20226E22206F43
:10085000662074686520656570726F6D2E0054683F
:100860006520706F736974696F6E73206F66207492
:10087000686520656570726F6D20617265206C69B6
:100880006D697465642066726F6D203020746F200E
:10089000392E002564203A2025630A002564203A79
:1008A000200025630A0000000002000000003F0055
:0408B0000000000044
:00000001FF
