:100000000C9434000C9446000C9446000C9446006A
:100010000C9446000C9446000C9446000C94460048
:100020000C9446000C9446000C9446000C94460038
:100030000C9446000C9446000C9446000C94460028
:100040000C9446000C9446000C940B010C94460052
:100050000C9446000C9446000C9446000C94460008
:100060000C9446000C94460011241FBECFEFD4E040
:10007000DEBFCDBF11E0A0E0B1E001C01D92A8300D
:10008000B107E1F70E9468010C940B020C94000088
:100090005E98E0E0F1E090E00DC0990F4D9991601D
:1000A0005C9A5C988F5F8830C1F7919381E0E4306F
:1000B000F80711F080E0F1CF5E9A08955E9A82E32E
:1000C0008A95F1F730E042E311C0990F97FF02C023
:1000D0005D9A01C05D985C9A842F8A95F1F75C98CF
:1000E0002F5F283091F73F5F353019F020E097EE11
:1000F000EDCFE4E0F1E032E3208190E027FF02C0A1
:100100005D9A01C05D985C9A832F8A95F1F75C989F
:100110009F5F983011F0220FF1CF319681E0E830E7
:10012000F80751F75E980895559A5E9882E3982FE4
:100130009A95F1F75A9A8A95F1F740E052E314C084
:10014000880F991FAA1FBB1F87FF02C05D9A01C0BD
:100150005D985C9A252F2A95F1F75C983F5F3830BF
:1001600079F74F5F453031F030E087EE90E0A0E066
:10017000B0E0EACF30E081E29EE6A3EAB0E052E3ED
:10018000A7FF02C05D9A01C05D985C9A42E3252FEB
:100190002A95F1F75C983F5F383129F0880F991F55
:1001A000AA1FBB1FEDCF5E98842F8A95F1F75A984E
:1001B000842F8A95F1F78AB1877D8AB95E9A842F58
:1001C0008A95F1F75A980895559A5E9882E3982F88
:1001D0009A95F1F75A9A8A95F1F730E080E29EE617
:1001E000A3EAB0E042E3A7FF02C05D9A01C05D98B8
:1001F0005C9A242F2A95F1F75C983F5F383129F0FB
:10020000880F991FAA1FBB1FEECF5E9882E38A95C5
:10021000F1F75A9808951F920F920FB60F9211247A
:100220002F933F934F935F936F937F938F939F93FE
:10023000AF93BF93EF93FF93F8948091C6008093A0
:100240000601809305010E94E4000E945E000E9466
:1002500094007894FF91EF91BF91AF919F918F910E
:100260007F916F915F914F913F912F910F900FBEB2
:100270000F901F90189584B18E6084B91092B300CE
:10028000EAE8F0E0118210828081918190938900E8
:100290008093880089E08093810081EA80938000C8
:1002A00083E88093B00081E08093B100089586E5F3
:1002B0008AB981E088B917B81092C50087E68093A3
:1002C000C40088E98093C1008EE08093C200089545
:1002D000BF92CF92DF92EF92FF920F931F93CF9333
:1002E000DF930E9457010E943B01109289001092F7
:1002F0008800809188009091890090938B00809372
:100300008A0080918A0090918B008093B3001092B4
:1003100000011092010110920201109203018BE37F
:10032000809304018AE2809307010E9494007894EC
:10033000C0E0D0E000E010E0BB24BA94B0E8CB2EDF
:10034000A0E4DA2EF0E2EF2EE0E1FE2E4B9B16C089
:100350000E944800809100018B3381F4909101014B
:1003600080910201981751F4809103018A3231F48F
:100370008091C00085FFFCCF9093C600309917C0D4
:100380002196C630D10514F0C0E0D0E09E01205D7A
:1003900020930601209305010E94E4000E945E0064
:1003A0000E949400309BFECFC8010197F1F7909115
:1003B0000101892F8053883048F6903319F4109248
:1003C000B300C4CF913319F4F092B300BFCF92338E
:1003D00019F4E092B300BACF933319F4D092B3007A
:1003E000B5CF943319F4C092B300B0CF953309F070
:1003F000ADCFB092B300AACF8091C00087FFFCCFF1
:100400008091C6000895982F8091C00085FFFCCF91
:0A0410009093C6000895F894FFCF02
:00000001FF
