:1000000012C02CC02BC02AC029C028C027C026C0BF
:1000100025C024C023C022C021C020C01FC01EC0D4
:100020001DC01CC01BC011241FBECFE5D4E0DEBF25
:10003000CDBF10E0A0E6B0E0E2EEF0E002C0059037
:100040000D92A036B107D9F710E0A0E6B0E001C0EC
:100050001D92A036B107E1F71CD041C0D1CF20E0FE
:1000600040E050E0CA010197F1F72F5F2233D1F74A
:10007000089585E08A95F1F70895939A85E08A9529
:10008000F1F793980895949A85E08A95F1F79498FA
:1000900008958FEF81BB12BA30E065E040E050E098
:1000A00001C030E03F5F343069F4949A862F8A951E
:1000B000F1F7949820E0CA010197F1F72F5F2233FE
:1000C000D1F7EFCF939A862F8A95F1F7939820E096
:1000D000CA010197F1F72F5F2233D1F7E3CFF894EC
:0200E000FFCF50
:00000001FF
